:020000040000fa
:080000000002040000000000f2
:020000040000fa
:100400000f8220000eff27000e0188000000000070
:100410000c000700604820000100200011000700c8
:10042000000020000000e000020032000000020096
:100430000000000034030200000000000040da0069
:100440000000fe004440a900000020000000e00081
:100450000300320000002000a00188004440a800f2
:100460000000060091018800800078000000eb0089
:1004700015003700e280400032a0b4009101ba00bc
:10048000e280400032a0b4009102ba00e280400055
:1004900032a0b4000002eb00472bde00f507b200eb
:1004a000602ce10004003a000059eb008301e900f0
:1004b000fdff3e00040037006128e100010032002a
:1004c0000082eb00040007001101ba000200e00006
:1004d000e8ff3a00000006003159ba008301e90044
:1004e0000c0032002159ba008301e90008003200f3
:1004f0000400e00003003a00e280400032a0b400b3
:10050000f5ff370011d9ba008301e900faff3a007c
:100510008100e800e180400032a0b4000000060045
:100520000040da000000fe00889fbe008a9fbe00e7
:100530008c1f78000205be000004be000006eb0020
:10054000e00f5000e08f5800e00f5900e08f590095
:1005500007003d006000b8006011b80008045000ba
:10056000898458000a0559008b8559001c00200019
:10057000e00f5200e08f5a00e00f5b00e08f5b005d
:1005800002003d000f0007000c00a2000800be00a2
:100590000a01be00120007000203be000002be00f6
:1005a0000c00e00001003200060007000400be005d
:1005b0000601be004f0678004f05be004f04be0086
:1005c000000006006000b8006011b800040250008e
:1005d00085825800060359008783590000000600f1
:1005e000889fbe008a9fbe008c9fbe000404b80096
:1005f0000506b8008904460060854e000606b8006e
:100600000a054600e0854e000706b8008b05460047
:10061000040eb800890446000a854e00e0854d00ae
:10062000050eb8000a0546008b854e00060eb80080
:100630008b0546000416b8000a0546008b854e005f
:100640000516b8008b054600041eb8008b05460051
:100650000800be000a01be004f06be004f05be00e6
:080660004f04be00000006007b
:020000040000fa
:1000080090020000900200009002000090020000a0
:100018009002000090020000900200009002000090
:100028009002000090020000900200009002000080
:100038009002000090020000900200009002000070
:020000040000fa
:020000040000fa
:100668000000fa00889fbe0000c4b30000e8b7008d
:1006780000c8b30001e8b70000102000404088001f
:100688000020200050408800018020009140780020
:1006980001c8bf0000c0400002e8b70000c8bf00a2
:1006a8008080fb0001c8bf000080fb000080400084
:1006b8006040880041408000504080000080400039
:1006c8006040880041408000504080000080500019
:1006d80060408800107e2f0040408800605621004e
:1006e8005040880041408000504080000080400019
:1006f8006040880042c0bf00614060000004e00024
:10070800020032000080eb006040880000c6b300a1
:1007180004e8b70080c2b30005e8b70041802000b4
:100728009140780005c8bf0000c0400006e8b70047
:100738001002800000e8b70000c8bf00ec4f50006e
:1007480002003a00f0c7b30006e8b70000c8bf00cf
:10075800e54f500002003a0000c8b30006e8b700b1
:1007680000cab30004e8b70080cdb30005e8b700bd
:10077800418020009140780005c8bf0000c04000bb
:1007880006e8b7001002800000e8b70000c8bf0004
:10079800ec4f500002003a00f0c7b30006e8b7007b
:1007a80000c8bf00e54f500002003a0000c8b3007f
:1007b80006e8b70080c0b30000e8b70000c4b30083
:1007c80001e8b70000ee2200404088000005200044
:1007d80050408800006a28001100200090408800de
:1007e800a1408800018020009140780001c8bf0026
:1007f8000088b90002e8b70000c8bf008080fb008d
:1008080001c8bf000080fb000088b9006040880074
:1008180041408000504080000088b9006040880056
:1008280041408000504080000088b900010020004d
:100838007040880081408800404080006104b80012
:10084800504080006103b8008800780006007800f6
:10085800000ab80007c0b90005017800000141008e
:1008680009b0b90000014100820278007440880094
:10087800854088007840800089408000944080004e
:10088800a54080008800780004007800000bb800bc
:1008980005c0b900070178000001410009a0b900ae
:1008a80000014100820378000600be000001eb0051
:1008b8008001eb0064812000009abe000292be0015
:1008c80074408000854080000400be000001eb00f9
:1008d8008001eb0098408000a94080000802be001b
:1008e8000003eb008003eb000dff0700648120008c
:1008f800009abe000292be004f04be000080fa00bb
:0409080000000600e5
:020000040000fa
:10090c00000800001e0000000000000000000000b5
:00000001FF
